{"abi":[{"type":"constructor","inputs":[{"name":"_owner","type":"address","internalType":"address"},{"name":"_tokenContract","type":"address","internalType":"address"},{"name":"_airdropTime","type":"uint128","internalType":"uint128"},{"name":"_registrationFee","type":"uint256","internalType":"uint256"}],"stateMutability":"nonpayable"},{"type":"function","name":"airdropSent","inputs":[],"outputs":[{"name":"","type":"bool","internalType":"bool"}],"stateMutability":"view"},{"type":"function","name":"count","inputs":[],"outputs":[{"name":"","type":"uint256","internalType":"uint256"}],"stateMutability":"view"},{"type":"function","name":"getAirdropTime","inputs":[],"outputs":[{"name":"","type":"uint128","internalType":"uint128"}],"stateMutability":"view"},{"type":"function","name":"getBalance","inputs":[],"outputs":[{"name":"","type":"uint256","internalType":"uint256"}],"stateMutability":"view"},{"type":"function","name":"getRegistrationFee","inputs":[],"outputs":[{"name":"","type":"uint256","internalType":"uint256"}],"stateMutability":"view"},{"type":"function","name":"getToken","inputs":[],"outputs":[{"name":"","type":"address","internalType":"contract IERC20"}],"stateMutability":"view"},{"type":"function","name":"getTokenName","inputs":[],"outputs":[{"name":"","type":"string","internalType":"string"}],"stateMutability":"view"},{"type":"function","name":"owner","inputs":[],"outputs":[{"name":"","type":"address","internalType":"address"}],"stateMutability":"view"},{"type":"function","name":"receiveTokens","inputs":[{"name":"amount","type":"uint256","internalType":"uint256"}],"outputs":[],"stateMutability":"nonpayable"},{"type":"function","name":"register","inputs":[],"outputs":[],"stateMutability":"payable"},{"type":"function","name":"register","inputs":[{"name":"_addresses","type":"address[]","internalType":"address[]"}],"outputs":[],"stateMutability":"nonpayable"},{"type":"function","name":"renounceOwnership","inputs":[],"outputs":[],"stateMutability":"nonpayable"},{"type":"function","name":"sendAirdrop","inputs":[],"outputs":[],"stateMutability":"nonpayable"},{"type":"function","name":"transferOwnership","inputs":[{"name":"newOwner","type":"address","internalType":"address"}],"outputs":[],"stateMutability":"nonpayable"},{"type":"function","name":"withdrawPaidFees","inputs":[],"outputs":[],"stateMutability":"nonpayable"},{"type":"function","name":"withdrawTokens","inputs":[],"outputs":[],"stateMutability":"nonpayable"},{"type":"event","name":"OwnershipTransferred","inputs":[{"name":"previousOwner","type":"address","indexed":true,"internalType":"address"},{"name":"newOwner","type":"address","indexed":true,"internalType":"address"}],"anonymous":false},{"type":"error","name":"OwnableInvalidOwner","inputs":[{"name":"owner","type":"address","internalType":"address"}]},{"type":"error","name":"OwnableUnauthorizedAccount","inputs":[{"name":"account","type":"address","internalType":"address"}]}],"bytecode":{"object":"0x6101006040523480156200001257600080fd5b506040516200151f3803806200151f833981016040819052620000359162000227565b33806200005d57604051631e4fbdf760e01b8152600060048201526024015b60405180910390fd5b620000688162000145565b50620000748462000195565b42826001600160801b0316116200008a57600080fd5b6001600160a01b03831660808190526001600160801b03831660a05260e08290526002805460ff191690556040805163313ce56760e01b815290516000929163313ce5679160048083019260209291908290030181865afa158015620000f4573d6000803e3d6000fd5b505050506040513d601f19601f820116820180604052508101906200011a919062000287565b905062000129600182620002c9565b6200013690600a620003e8565b60c05250620003f99350505050565b600080546001600160a01b038381166001600160a01b0319831681178455604051919092169283917f8be0079c531659141344cd1fd0a4f28419497f9722a3daafe3b4186f6b6457e09190a35050565b6200019f620001d9565b6001600160a01b038116620001cb57604051631e4fbdf760e01b81526000600482015260240162000054565b620001d68162000145565b50565b6000546001600160a01b03163314620002085760405163118cdaa760e01b815233600482015260240162000054565b565b80516001600160a01b03811681146200022257600080fd5b919050565b600080600080608085870312156200023e57600080fd5b62000249856200020a565b935062000259602086016200020a565b60408601519093506001600160801b03811681146200027757600080fd5b6060959095015193969295505050565b6000602082840312156200029a57600080fd5b815160ff81168114620002ac57600080fd5b9392505050565b634e487b7160e01b600052601160045260246000fd5b60ff8281168282160390811115620002e557620002e5620002b3565b92915050565b600181815b808511156200032c578160001904821115620003105762000310620002b3565b808516156200031e57918102915b93841c9390800290620002f0565b509250929050565b6000826200034557506001620002e5565b816200035457506000620002e5565b81600181146200036d5760028114620003785762000398565b6001915050620002e5565b60ff8411156200038c576200038c620002b3565b50506001821b620002e5565b5060208310610133831016604e8410600b8410161715620003bd575081810a620002e5565b620003c98383620002eb565b8060001904821115620003e057620003e0620002b3565b029392505050565b6000620002ac60ff84168362000334565b60805160a05160c05160e0516110a6620004796000396000818161012b01526104240152600081816109910152610c880152600081816102c601526108ad015260008181610192015281816103280152818161059b0152818161067f01528181610772015281816109eb01528181610b480152610c2401526110a66000f3fe6080604052600436106100f35760003560e01c8063715018a61161008a5780638da5cb5b116100595780638da5cb5b14610279578063b337a92614610297578063e66aca63146102ac578063f2fde38b146102f057600080fd5b8063715018a61461020d578063743e0c9b14610222578063862b092b146102425780638d8f2adb1461026457600080fd5b80631aa3a008116100c65780631aa3a0081461017b57806321df0da71461018357806343dc3ab2146101ca578063674254c6146101ea57600080fd5b806306661abd146100f85780630946e8071461011c57806312065fe01461014f578063145b88eb14610164575b600080fd5b34801561010457600080fd5b506001545b6040519081526020015b60405180910390f35b34801561012857600080fd5b507f0000000000000000000000000000000000000000000000000000000000000000610109565b34801561015b57600080fd5b50610109610310565b34801561017057600080fd5b506101796103a0565b005b610179610422565b34801561018f57600080fd5b507f00000000000000000000000000000000000000000000000000000000000000005b6040516001600160a01b039091168152602001610113565b3480156101d657600080fd5b506101796101e5366004610ddf565b6104cc565b3480156101f657600080fd5b5060025460ff166040519015158152602001610113565b34801561021957600080fd5b50610179610565565b34801561022e57600080fd5b5061017961023d366004610e54565b610579565b34801561024e57600080fd5b5061025761067b565b6040516101139190610e91565b34801561027057600080fd5b50610179610703565b34801561028557600080fd5b506000546001600160a01b03166101b2565b3480156102a357600080fd5b5061017961085e565b3480156102b857600080fd5b506040516001600160801b037f0000000000000000000000000000000000000000000000000000000000000000168152602001610113565b3480156102fc57600080fd5b5061017961030b366004610ec4565b610d27565b6040516370a0823160e01b81523060048201526000907f00000000000000000000000000000000000000000000000000000000000000006001600160a01b0316906370a0823190602401602060405180830381865afa158015610377573d6000803e3d6000fd5b505050506040513d601f19601f8201168201806040525081019061039b9190610ef4565b905090565b6103a8610d62565b47806103f15760405162461bcd60e51b81526020600482015260136024820152724e6f206665657320746f20776974686472617760681b60448201526064015b60405180910390fd5b604051339082156108fc029083906000818181858888f1935050505015801561041e573d6000803e3d6000fd5b5050565b7f00000000000000000000000000000000000000000000000000000000000000003410156104895760405162461bcd60e51b8152602060048201526014602482015273125b9cdd59999a58da595b9d081c185e5b595b9d60621b60448201526064016103e8565b6001805480820182556000919091527fb10e2d527612073b26eecdfd717e6a320cf44b4afac2b0732d9fcbe2b7fa0cf60180546001600160a01b03191633179055565b6104d4610d62565b8060005b8167ffffffffffffffff168167ffffffffffffffff16101561055f57600184848367ffffffffffffffff1681811061051257610512610f0d565b90506020020160208101906105279190610ec4565b815460018082018455600093845260209093200180546001600160a01b0319166001600160a01b0392909216919091179055016104d8565b50505050565b61056d610d62565b6105776000610d8f565b565b6040516323b872dd60e01b8152336004820152306024820152604481018290527f00000000000000000000000000000000000000000000000000000000000000006001600160a01b0316906323b872dd906064016020604051808303816000875af11580156105ec573d6000803e3d6000fd5b505050506040513d601f19601f820116820180604052508101906106109190610f23565b6106785760405162461bcd60e51b815260206004820152603360248201527f5472616e73666572206661696c65642e204d616b6520737572652074686520656044820152723c3832b739b29034b99030b8383937bb32b21760691b60648201526084016103e8565b50565b60607f00000000000000000000000000000000000000000000000000000000000000006001600160a01b03166306fdde036040518163ffffffff1660e01b8152600401600060405180830381865afa1580156106db573d6000803e3d6000fd5b505050506040513d6000823e601f3d908101601f1916820160405261039b9190810190610f5b565b61070b610d62565b60025460ff1661075d5760405162461bcd60e51b815260206004820152601f60248201527f41697264726f70206d7573742062652073656e74206f75742066697273742e0060448201526064016103e8565b6040516370a0823160e01b81523060048201527f00000000000000000000000000000000000000000000000000000000000000006001600160a01b03169063a9059cbb90339083906370a0823190602401602060405180830381865afa1580156107cb573d6000803e3d6000fd5b505050506040513d601f19601f820116820180604052508101906107ef9190610ef4565b6040516001600160e01b031960e085901b1681526001600160a01b03909216600483015260248201526044016020604051808303816000875af115801561083a573d6000803e3d6000fd5b505050506040513d601f19601f820116820180604052508101906106789190610f23565b60025460ff16156108965760405162461bcd60e51b81526020600482015260026024820152614e6f60f01b60448201526064016103e8565b6002805460ff191660011790556001600160801b037f00000000000000000000000000000000000000000000000000000000000000001642116109275760405162461bcd60e51b8152602060048201526024808201527f497420697320746f6f206561726c7920746f2073656e642061697264726f702060448201526337baba1760e11b60648201526084016103e8565b6000610931610310565b1161098d5760405162461bcd60e51b815260206004820152602660248201527f54686520636f6e74726163742062616c616e6365206d757374206265206e6f6e604482015265103d32b9379760d11b60648201526084016103e8565b60007f00000000000000000000000000000000000000000000000000000000000000006109b8610310565b6109c2919061101e565b600154909150600090815b8167ffffffffffffffff168167ffffffffffffffff161015610abd577f00000000000000000000000000000000000000000000000000000000000000006001600160a01b03166370a0823160018367ffffffffffffffff1681548110610a3557610a35610f0d565b60009182526020909120015460405160e083901b6001600160e01b03191681526001600160a01b039091166004820152602401602060405180830381865afa158015610a85573d6000803e3d6000fd5b505050506040513d601f19601f82011682018060405250810190610aa99190610ef4565b610ab39084611040565b92506001016109cd565b5060008211610b235760405162461bcd60e51b815260206004820152602c60248201527f4e6f2061697264726f7020726563697069656e74206164647265737320686f6c60448201526b3239903a3432903a37b5b2b760a11b60648201526084016103e8565b60005b8167ffffffffffffffff168167ffffffffffffffff16101561055f57600083857f00000000000000000000000000000000000000000000000000000000000000006001600160a01b03166370a0823160018667ffffffffffffffff1681548110610b9257610b92610f0d565b60009182526020909120015460405160e083901b6001600160e01b03191681526001600160a01b039091166004820152602401602060405180830381865afa158015610be2573d6000803e3d6000fd5b505050506040513d601f19601f82011682018060405250810190610c069190610ef4565b610c109190611059565b610c1a919061101e565b90508015610d1e577f00000000000000000000000000000000000000000000000000000000000000006001600160a01b031663a9059cbb60018467ffffffffffffffff1681548110610c6e57610c6e610f0d565b6000918252602090912001546001600160a01b0316610cad7f000000000000000000000000000000000000000000000000000000000000000085611059565b6040516001600160e01b031960e085901b1681526001600160a01b03909216600483015260248201526044016020604051808303816000875af1158015610cf8573d6000803e3d6000fd5b505050506040513d601f19601f82011682018060405250810190610d1c9190610f23565b505b50600101610b26565b610d2f610d62565b6001600160a01b038116610d5957604051631e4fbdf760e01b8152600060048201526024016103e8565b61067881610d8f565b6000546001600160a01b031633146105775760405163118cdaa760e01b81523360048201526024016103e8565b600080546001600160a01b038381166001600160a01b0319831681178455604051919092169283917f8be0079c531659141344cd1fd0a4f28419497f9722a3daafe3b4186f6b6457e09190a35050565b60008060208385031215610df257600080fd5b823567ffffffffffffffff80821115610e0a57600080fd5b818501915085601f830112610e1e57600080fd5b813581811115610e2d57600080fd5b8660208260051b8501011115610e4257600080fd5b60209290920196919550909350505050565b600060208284031215610e6657600080fd5b5035919050565b60005b83811015610e88578181015183820152602001610e70565b50506000910152565b6020815260008251806020840152610eb0816040850160208701610e6d565b601f01601f19169190910160400192915050565b600060208284031215610ed657600080fd5b81356001600160a01b0381168114610eed57600080fd5b9392505050565b600060208284031215610f0657600080fd5b5051919050565b634e487b7160e01b600052603260045260246000fd5b600060208284031215610f3557600080fd5b81518015158114610eed57600080fd5b634e487b7160e01b600052604160045260246000fd5b600060208284031215610f6d57600080fd5b815167ffffffffffffffff80821115610f8557600080fd5b818401915084601f830112610f9957600080fd5b815181811115610fab57610fab610f45565b604051601f8201601f19908116603f01168101908382118183101715610fd357610fd3610f45565b81604052828152876020848701011115610fec57600080fd5b610ffd836020830160208801610e6d565b979650505050505050565b634e487b7160e01b600052601160045260246000fd5b60008261103b57634e487b7160e01b600052601260045260246000fd5b500490565b8082018082111561105357611053611008565b92915050565b80820281158282048414176110535761105361100856fea2646970667358221220c25eee73aeee80aa5cdd82b9475116bf4253273e827ba0890f12a28271507df864736f6c63430008170033","linkReferences":{}},"methodIdentifiers":{"airdropSent()":"674254c6","count()":"06661abd","getAirdropTime()":"e66aca63","getBalance()":"12065fe0","getRegistrationFee()":"0946e807","getToken()":"21df0da7","getTokenName()":"862b092b","owner()":"8da5cb5b","receiveTokens(uint256)":"743e0c9b","register()":"1aa3a008","register(address[])":"43dc3ab2","renounceOwnership()":"715018a6","sendAirdrop()":"b337a926","transferOwnership(address)":"f2fde38b","withdrawPaidFees()":"145b88eb","withdrawTokens()":"8d8f2adb"},"id":30}