{"abi":[{"type":"constructor","inputs":[{"name":"_owner","type":"address","internalType":"address"},{"name":"_tokenContract","type":"address","internalType":"address"},{"name":"_airdropTime","type":"uint128","internalType":"uint128"},{"name":"_registrationFee","type":"uint256","internalType":"uint256"}],"stateMutability":"nonpayable"},{"type":"function","name":"airdropSent","inputs":[],"outputs":[{"name":"","type":"bool","internalType":"bool"}],"stateMutability":"view"},{"type":"function","name":"count","inputs":[],"outputs":[{"name":"","type":"uint256","internalType":"uint256"}],"stateMutability":"view"},{"type":"function","name":"getAirdropTime","inputs":[],"outputs":[{"name":"","type":"uint128","internalType":"uint128"}],"stateMutability":"view"},{"type":"function","name":"getBalance","inputs":[],"outputs":[{"name":"","type":"uint256","internalType":"uint256"}],"stateMutability":"view"},{"type":"function","name":"getRegistrationFee","inputs":[],"outputs":[{"name":"","type":"uint256","internalType":"uint256"}],"stateMutability":"view"},{"type":"function","name":"getToken","inputs":[],"outputs":[{"name":"","type":"address","internalType":"contract IERC20"}],"stateMutability":"view"},{"type":"function","name":"owner","inputs":[],"outputs":[{"name":"","type":"address","internalType":"address"}],"stateMutability":"view"},{"type":"function","name":"receiveTokens","inputs":[{"name":"amount","type":"uint256","internalType":"uint256"}],"outputs":[],"stateMutability":"nonpayable"},{"type":"function","name":"register","inputs":[],"outputs":[],"stateMutability":"payable"},{"type":"function","name":"register","inputs":[{"name":"_addresses","type":"address[]","internalType":"address[]"}],"outputs":[],"stateMutability":"nonpayable"},{"type":"function","name":"renounceOwnership","inputs":[],"outputs":[],"stateMutability":"nonpayable"},{"type":"function","name":"sendAirdrop","inputs":[],"outputs":[],"stateMutability":"nonpayable"},{"type":"function","name":"transferOwnership","inputs":[{"name":"newOwner","type":"address","internalType":"address"}],"outputs":[],"stateMutability":"nonpayable"},{"type":"function","name":"withdrawPaidFees","inputs":[],"outputs":[],"stateMutability":"nonpayable"},{"type":"function","name":"withdrawTokens","inputs":[],"outputs":[],"stateMutability":"nonpayable"},{"type":"event","name":"OwnershipTransferred","inputs":[{"name":"previousOwner","type":"address","indexed":true,"internalType":"address"},{"name":"newOwner","type":"address","indexed":true,"internalType":"address"}],"anonymous":false},{"type":"error","name":"OwnableInvalidOwner","inputs":[{"name":"owner","type":"address","internalType":"address"}]},{"type":"error","name":"OwnableUnauthorizedAccount","inputs":[{"name":"account","type":"address","internalType":"address"}]}],"bytecode":{"object":"0x6101006040523480156200001257600080fd5b506040516200134938038062001349833981016040819052620000359162000227565b33806200005d57604051631e4fbdf760e01b8152600060048201526024015b60405180910390fd5b620000688162000145565b50620000748462000195565b42826001600160801b0316116200008a57600080fd5b6001600160a01b03831660808190526001600160801b03831660a05260e08290526002805460ff191690556040805163313ce56760e01b815290516000929163313ce5679160048083019260209291908290030181865afa158015620000f4573d6000803e3d6000fd5b505050506040513d601f19601f820116820180604052508101906200011a919062000287565b905062000129600182620002c9565b6200013690600a620003e8565b60c05250620003f99350505050565b600080546001600160a01b038381166001600160a01b0319831681178455604051919092169283917f8be0079c531659141344cd1fd0a4f28419497f9722a3daafe3b4186f6b6457e09190a35050565b6200019f620001d9565b6001600160a01b038116620001cb57604051631e4fbdf760e01b81526000600482015260240162000054565b620001d68162000145565b50565b6000546001600160a01b03163314620002085760405163118cdaa760e01b815233600482015260240162000054565b565b80516001600160a01b03811681146200022257600080fd5b919050565b600080600080608085870312156200023e57600080fd5b62000249856200020a565b935062000259602086016200020a565b60408601519093506001600160801b03811681146200027757600080fd5b6060959095015193969295505050565b6000602082840312156200029a57600080fd5b815160ff81168114620002ac57600080fd5b9392505050565b634e487b7160e01b600052601160045260246000fd5b60ff8281168282160390811115620002e557620002e5620002b3565b92915050565b600181815b808511156200032c578160001904821115620003105762000310620002b3565b808516156200031e57918102915b93841c9390800290620002f0565b509250929050565b6000826200034557506001620002e5565b816200035457506000620002e5565b81600181146200036d5760028114620003785762000398565b6001915050620002e5565b60ff8411156200038c576200038c620002b3565b50506001821b620002e5565b5060208310610133831016604e8410600b8410161715620003bd575081810a620002e5565b620003c98383620002eb565b8060001904821115620003e057620003e0620002b3565b029392505050565b6000620002ac60ff84168362000334565b60805160a05160c05160e051610ed7620004726000396000818161012001526103f70152600081816108dc0152610bd301526000818161029901526107f8015260008181610187015281816102fb0152818161056e015281816106bd0152818161093601528181610a930152610b6f0152610ed76000f3fe6080604052600436106100e85760003560e01c8063674254c61161008a5780638da5cb5b116100595780638da5cb5b1461024c578063b337a9261461026a578063e66aca631461027f578063f2fde38b146102c357600080fd5b8063674254c6146101df578063715018a614610202578063743e0c9b146102175780638d8f2adb1461023757600080fd5b8063145b88eb116100c6578063145b88eb146101595780631aa3a0081461017057806321df0da71461017857806343dc3ab2146101bf57600080fd5b806306661abd146100ed5780630946e8071461011157806312065fe014610144575b600080fd5b3480156100f957600080fd5b506001545b6040519081526020015b60405180910390f35b34801561011d57600080fd5b507f00000000000000000000000000000000000000000000000000000000000000006100fe565b34801561015057600080fd5b506100fe6102e3565b34801561016557600080fd5b5061016e610373565b005b61016e6103f5565b34801561018457600080fd5b507f00000000000000000000000000000000000000000000000000000000000000005b6040516001600160a01b039091168152602001610108565b3480156101cb57600080fd5b5061016e6101da366004610d2a565b61049f565b3480156101eb57600080fd5b5060025460ff166040519015158152602001610108565b34801561020e57600080fd5b5061016e610538565b34801561022357600080fd5b5061016e610232366004610d9f565b61054c565b34801561024357600080fd5b5061016e61064e565b34801561025857600080fd5b506000546001600160a01b03166101a7565b34801561027657600080fd5b5061016e6107a9565b34801561028b57600080fd5b506040516001600160801b037f0000000000000000000000000000000000000000000000000000000000000000168152602001610108565b3480156102cf57600080fd5b5061016e6102de366004610db8565b610c72565b6040516370a0823160e01b81523060048201526000907f00000000000000000000000000000000000000000000000000000000000000006001600160a01b0316906370a0823190602401602060405180830381865afa15801561034a573d6000803e3d6000fd5b505050506040513d601f19601f8201168201806040525081019061036e9190610de8565b905090565b61037b610cad565b47806103c45760405162461bcd60e51b81526020600482015260136024820152724e6f206665657320746f20776974686472617760681b60448201526064015b60405180910390fd5b604051339082156108fc029083906000818181858888f193505050501580156103f1573d6000803e3d6000fd5b5050565b7f000000000000000000000000000000000000000000000000000000000000000034101561045c5760405162461bcd60e51b8152602060048201526014602482015273125b9cdd59999a58da595b9d081c185e5b595b9d60621b60448201526064016103bb565b6001805480820182556000919091527fb10e2d527612073b26eecdfd717e6a320cf44b4afac2b0732d9fcbe2b7fa0cf60180546001600160a01b03191633179055565b6104a7610cad565b8060005b8167ffffffffffffffff168167ffffffffffffffff16101561053257600184848367ffffffffffffffff168181106104e5576104e5610e01565b90506020020160208101906104fa9190610db8565b815460018082018455600093845260209093200180546001600160a01b0319166001600160a01b0392909216919091179055016104ab565b50505050565b610540610cad565b61054a6000610cda565b565b6040516323b872dd60e01b8152336004820152306024820152604481018290527f00000000000000000000000000000000000000000000000000000000000000006001600160a01b0316906323b872dd906064016020604051808303816000875af11580156105bf573d6000803e3d6000fd5b505050506040513d601f19601f820116820180604052508101906105e39190610e17565b61064b5760405162461bcd60e51b815260206004820152603360248201527f5472616e73666572206661696c65642e204d616b6520737572652074686520656044820152723c3832b739b29034b99030b8383937bb32b21760691b60648201526084016103bb565b50565b610656610cad565b60025460ff166106a85760405162461bcd60e51b815260206004820152601f60248201527f41697264726f70206d7573742062652073656e74206f75742066697273742e0060448201526064016103bb565b6040516370a0823160e01b81523060048201527f00000000000000000000000000000000000000000000000000000000000000006001600160a01b03169063a9059cbb90339083906370a0823190602401602060405180830381865afa158015610716573d6000803e3d6000fd5b505050506040513d601f19601f8201168201806040525081019061073a9190610de8565b6040516001600160e01b031960e085901b1681526001600160a01b03909216600483015260248201526044016020604051808303816000875af1158015610785573d6000803e3d6000fd5b505050506040513d601f19601f8201168201806040525081019061064b9190610e17565b60025460ff16156107e15760405162461bcd60e51b81526020600482015260026024820152614e6f60f01b60448201526064016103bb565b6002805460ff191660011790556001600160801b037f00000000000000000000000000000000000000000000000000000000000000001642116108725760405162461bcd60e51b8152602060048201526024808201527f497420697320746f6f206561726c7920746f2073656e642061697264726f702060448201526337baba1760e11b60648201526084016103bb565b600061087c6102e3565b116108d85760405162461bcd60e51b815260206004820152602660248201527f54686520636f6e74726163742062616c616e6365206d757374206265206e6f6e604482015265103d32b9379760d11b60648201526084016103bb565b60007f00000000000000000000000000000000000000000000000000000000000000006109036102e3565b61090d9190610e4f565b600154909150600090815b8167ffffffffffffffff168167ffffffffffffffff161015610a08577f00000000000000000000000000000000000000000000000000000000000000006001600160a01b03166370a0823160018367ffffffffffffffff168154811061098057610980610e01565b60009182526020909120015460405160e083901b6001600160e01b03191681526001600160a01b039091166004820152602401602060405180830381865afa1580156109d0573d6000803e3d6000fd5b505050506040513d601f19601f820116820180604052508101906109f49190610de8565b6109fe9084610e71565b9250600101610918565b5060008211610a6e5760405162461bcd60e51b815260206004820152602c60248201527f4e6f2061697264726f7020726563697069656e74206164647265737320686f6c60448201526b3239903a3432903a37b5b2b760a11b60648201526084016103bb565b60005b8167ffffffffffffffff168167ffffffffffffffff16101561053257600083857f00000000000000000000000000000000000000000000000000000000000000006001600160a01b03166370a0823160018667ffffffffffffffff1681548110610add57610add610e01565b60009182526020909120015460405160e083901b6001600160e01b03191681526001600160a01b039091166004820152602401602060405180830381865afa158015610b2d573d6000803e3d6000fd5b505050506040513d601f19601f82011682018060405250810190610b519190610de8565b610b5b9190610e8a565b610b659190610e4f565b90508015610c69577f00000000000000000000000000000000000000000000000000000000000000006001600160a01b031663a9059cbb60018467ffffffffffffffff1681548110610bb957610bb9610e01565b6000918252602090912001546001600160a01b0316610bf87f000000000000000000000000000000000000000000000000000000000000000085610e8a565b6040516001600160e01b031960e085901b1681526001600160a01b03909216600483015260248201526044016020604051808303816000875af1158015610c43573d6000803e3d6000fd5b505050506040513d601f19601f82011682018060405250810190610c679190610e17565b505b50600101610a71565b610c7a610cad565b6001600160a01b038116610ca457604051631e4fbdf760e01b8152600060048201526024016103bb565b61064b81610cda565b6000546001600160a01b0316331461054a5760405163118cdaa760e01b81523360048201526024016103bb565b600080546001600160a01b038381166001600160a01b0319831681178455604051919092169283917f8be0079c531659141344cd1fd0a4f28419497f9722a3daafe3b4186f6b6457e09190a35050565b60008060208385031215610d3d57600080fd5b823567ffffffffffffffff80821115610d5557600080fd5b818501915085601f830112610d6957600080fd5b813581811115610d7857600080fd5b8660208260051b8501011115610d8d57600080fd5b60209290920196919550909350505050565b600060208284031215610db157600080fd5b5035919050565b600060208284031215610dca57600080fd5b81356001600160a01b0381168114610de157600080fd5b9392505050565b600060208284031215610dfa57600080fd5b5051919050565b634e487b7160e01b600052603260045260246000fd5b600060208284031215610e2957600080fd5b81518015158114610de157600080fd5b634e487b7160e01b600052601160045260246000fd5b600082610e6c57634e487b7160e01b600052601260045260246000fd5b500490565b80820180821115610e8457610e84610e39565b92915050565b8082028115828204841417610e8457610e84610e3956fea26469706673582212203fb5a2513e7bca815572edfa0810452225bc3885cd41a574ae65cdfbe4f466c764736f6c63430008170033","linkReferences":{}},"methodIdentifiers":{"airdropSent()":"674254c6","count()":"06661abd","getAirdropTime()":"e66aca63","getBalance()":"12065fe0","getRegistrationFee()":"0946e807","getToken()":"21df0da7","owner()":"8da5cb5b","receiveTokens(uint256)":"743e0c9b","register()":"1aa3a008","register(address[])":"43dc3ab2","renounceOwnership()":"715018a6","sendAirdrop()":"b337a926","transferOwnership(address)":"f2fde38b","withdrawPaidFees()":"145b88eb","withdrawTokens()":"8d8f2adb"},"id":30}