{
    "abi": [
        {
            "type": "constructor",
            "inputs": [
                {
                    "name": "_feeTokenAddress",
                    "type": "address",
                    "internalType": "address"
                },
                {
                    "name": "_fee",
                    "type": "uint256",
                    "internalType": "uint256"
                },
                {
                    "name": "_treasury",
                    "type": "address",
                    "internalType": "address"
                }
            ],
            "stateMutability": "nonpayable"
        },
        {
            "type": "function",
            "name": "createNewAirdrop",
            "inputs": [
                {
                    "name": "_tokenContract",
                    "type": "address",
                    "internalType": "address"
                },
                {
                    "name": "_airdropTime",
                    "type": "uint128",
                    "internalType": "uint128"
                },
                {
                    "name": "_registrationFee",
                    "type": "uint256",
                    "internalType": "uint256"
                },
                {
                    "name": "_logoUrl",
                    "type": "string",
                    "internalType": "string"
                }
            ],
            "outputs": [],
            "stateMutability": "nonpayable"
        },
        {
            "type": "function",
            "name": "getContract",
            "inputs": [
                {
                    "name": "_index",
                    "type": "uint64",
                    "internalType": "uint64"
                }
            ],
            "outputs": [
                {
                    "name": "",
                    "type": "address",
                    "internalType": "address"
                }
            ],
            "stateMutability": "view"
        },
        {
            "type": "function",
            "name": "getFee",
            "inputs": [],
            "outputs": [
                {
                    "name": "",
                    "type": "uint256",
                    "internalType": "uint256"
                }
            ],
            "stateMutability": "view"
        },
        {
            "type": "function",
            "name": "getFeeToken",
            "inputs": [],
            "outputs": [
                {
                    "name": "",
                    "type": "address",
                    "internalType": "address"
                }
            ],
            "stateMutability": "view"
        },
        {
            "type": "function",
            "name": "getNumberOfAirdrops",
            "inputs": [],
            "outputs": [
                {
                    "name": "",
                    "type": "uint256",
                    "internalType": "uint256"
                }
            ],
            "stateMutability": "view"
        },
        {
            "type": "function",
            "name": "getTeasury",
            "inputs": [],
            "outputs": [
                {
                    "name": "",
                    "type": "address",
                    "internalType": "address"
                }
            ],
            "stateMutability": "view"
        },
        {
            "type": "function",
            "name": "owner",
            "inputs": [],
            "outputs": [
                {
                    "name": "",
                    "type": "address",
                    "internalType": "address"
                }
            ],
            "stateMutability": "view"
        },
        {
            "type": "function",
            "name": "removeAirdrop",
            "inputs": [],
            "outputs": [],
            "stateMutability": "nonpayable"
        },
        {
            "type": "function",
            "name": "renounceOwnership",
            "inputs": [],
            "outputs": [],
            "stateMutability": "nonpayable"
        },
        {
            "type": "function",
            "name": "transferOwnership",
            "inputs": [
                {
                    "name": "newOwner",
                    "type": "address",
                    "internalType": "address"
                }
            ],
            "outputs": [],
            "stateMutability": "nonpayable"
        },
        {
            "type": "function",
            "name": "updateFee",
            "inputs": [
                {
                    "name": "_fee",
                    "type": "uint256",
                    "internalType": "uint256"
                }
            ],
            "outputs": [],
            "stateMutability": "nonpayable"
        },
        {
            "type": "event",
            "name": "ContractDeployed",
            "inputs": [
                {
                    "name": "newContractAddress",
                    "type": "address",
                    "indexed": true,
                    "internalType": "address"
                }
            ],
            "anonymous": false
        },
        {
            "type": "event",
            "name": "OwnershipTransferred",
            "inputs": [
                {
                    "name": "previousOwner",
                    "type": "address",
                    "indexed": true,
                    "internalType": "address"
                },
                {
                    "name": "newOwner",
                    "type": "address",
                    "indexed": true,
                    "internalType": "address"
                }
            ],
            "anonymous": false
        },
        {
            "type": "error",
            "name": "OwnableInvalidOwner",
            "inputs": [
                {
                    "name": "owner",
                    "type": "address",
                    "internalType": "address"
                }
            ]
        },
        {
            "type": "error",
            "name": "OwnableUnauthorizedAccount",
            "inputs": [
                {
                    "name": "account",
                    "type": "address",
                    "internalType": "address"
                }
            ]
        }
    ],
    "bytecode": {
        "object": "0x60c060405234801561001057600080fd5b5060405161243d38038061243d83398101604081905261002f916100e8565b338061005557604051631e4fbdf760e01b81526000600482015260240160405180910390fd5b61005e8161007c565b506001600160a01b039283166080526003919091551660a052610124565b600080546001600160a01b038381166001600160a01b0319831681178455604051919092169283917f8be0079c531659141344cd1fd0a4f28419497f9722a3daafe3b4186f6b6457e09190a35050565b80516001600160a01b03811681146100e357600080fd5b919050565b6000806000606084860312156100fd57600080fd5b610106846100cc565b92506020840151915061011b604085016100cc565b90509250925092565b60805160a0516122e66101576000396000818161027a015261042f01526000818161014801526102aa01526122e66000f3fe60806040523480156200001157600080fd5b5060043610620000b75760003560e01c80639012c4a8116200007a5780639012c4a8146200012f578063ca709a251462000146578063ced72f87146200016d578063cfca80241462000180578063e229fdae146200018a578063f2fde38b146200019357600080fd5b806305a9b78614620000bc5780635a2c927314620000f0578063715018a614620001095780637cb5a8b814620001135780638da5cb5b146200011d575b600080fd5b620000d3620000cd36600462000ae8565b620001aa565b6040516001600160a01b0390911681526020015b60405180910390f35b620001076200010136600462000b4d565b620001ee565b005b6200010762000408565b620000d362000420565b6000546001600160a01b0316620000d3565b620001076200014036600462000c43565b62000451565b7f0000000000000000000000000000000000000000000000000000000000000000620000d3565b6003545b604051908152602001620000e7565b6200010762000460565b60015462000171565b62000107620001a436600462000c5d565b620007d9565b60006001826001600160401b031681548110620001cb57620001cb62000c7b565b60009182526020909120600160059092020101546001600160a01b031692915050565b336000908152600260205260409020546001600160401b0316156200025a5760405162461bcd60e51b815260206004820152601a60248201527f4f6e6c79206f6e652061697264726f7020617420612074696d6500000000000060448201526064015b60405180910390fd5b6003546040516323b872dd60e01b81523360048201526001600160a01b037f00000000000000000000000000000000000000000000000000000000000000008116602483015260448201929092527f0000000000000000000000000000000000000000000000000000000000000000909116906323b872dd906064016020604051808303816000875af1158015620002f6573d6000803e3d6000fd5b505050506040513d601f19601f820116820180604052508101906200031c919062000c91565b6200035c5760405162461bcd60e51b815260206004820152600f60248201526e151c985b9cd9995c8819985a5b1959608a1b604482015260640162000251565b600033858585604051620003709062000a86565b6001600160a01b0394851681529390921660208401526001600160801b031660408301526060820152608001604051809103906000f080158015620003b9573d6000803e3d6000fd5b506040519091506001600160a01b038216907f8ffcdc15a283d706d38281f500270d8b5a656918f555de0913d7455e3e6bc1bf90600090a2620004013382878787876200081d565b5050505050565b6200041262000a07565b6200041e600062000a36565b565b60006200042c62000a07565b507f000000000000000000000000000000000000000000000000000000000000000090565b6200045b62000a07565b600355565b4715620004ba5760405162461bcd60e51b815260206004820152602160248201527f506169642066656573206d7573742062652077697468647261776e20666972736044820152601d60fa1b606482015260840162000251565b336000908152600260205260408120546001600160401b031690819003620005255760405162461bcd60e51b815260206004820152601960248201527f4e6f2061697264726f7020636f6e747261637420666f756e6400000000000000604482015260640162000251565b6001546001600160401b0380831690821611620005735760405162461bcd60e51b815260206004820152600b60248201526a0aee4dedcce40d2dcc8caf60ab1b604482015260640162000251565b60006200058083620001aa565b9050806001600160a01b031663674254c66040518163ffffffff1660e01b8152600401602060405180830381865afa158015620005c1573d6000803e3d6000fd5b505050506040513d601f19601f82011682018060405250810190620005e7919062000c91565b6200062c5760405162461bcd60e51b8152602060048201526014602482015273105a5c991c9bdc081b5d5cdd081899481cd95b9d60621b604482015260640162000251565b336000908152600260205260409020805467ffffffffffffffff19169055825b6200065960018462000ccb565b6001600160401b0316816001600160401b031610156200076157600162000681828262000cf5565b6001600160401b0316815481106200069d576200069d62000c7b565b90600052602060002090600502016001826001600160401b031681548110620006ca57620006ca62000c7b565b60009182526020909120825460059092020190815560018083015490820180546001600160a01b03199081166001600160a01b03938416179091556002808501549084018054909216921691909117905560038083015490820180546001600160801b0319166001600160801b03909216919091179055600480820190620007559084018262000da9565b5050506001016200064c565b50600180548062000776576200077662000e95565b6000828152602081206005600019909301928302018181556001810180546001600160a01b031990811690915560028201805490911690556003810180546001600160801b031916905590620007d0600483018262000a94565b50509055505050565b620007e362000a07565b6001600160a01b0381166200080f57604051631e4fbdf760e01b81526000600482015260240162000251565b6200081a8162000a36565b50565b6200086b6040518060a001604052806000815260200160006001600160a01b0316815260200160006001600160a01b0316815260200160006001600160801b03168152602001606081525090565b8581602001906001600160a01b031690816001600160a01b0316815250508481604001906001600160a01b031690816001600160a01b0316815250508381606001906001600160801b031690816001600160801b0316815250508281600001818152505081816080018190525060018054905060026000896001600160a01b03166001600160a01b0316815260200190815260200160002060006101000a8154816001600160401b0302191690836001600160401b0316021790555060018190806001815401808255809150506001900390600052602060002090600502016000909190919091506000820151816000015560208201518160010160006101000a8154816001600160a01b0302191690836001600160a01b0316021790555060408201518160020160006101000a8154816001600160a01b0302191690836001600160a01b0316021790555060608201518160030160006101000a8154816001600160801b0302191690836001600160801b031602179055506080820151816004019081620009fb919062000eab565b50505050505050505050565b6000546001600160a01b031633146200041e5760405163118cdaa760e01b815233600482015260240162000251565b600080546001600160a01b038381166001600160a01b0319831681178455604051919092169283917f8be0079c531659141344cd1fd0a4f28419497f9722a3daafe3b4186f6b6457e09190a35050565b6113428062000f6f83390190565b50805462000aa29062000d18565b6000825580601f1062000ab3575050565b601f0160209004906000526020600020908101906200081a91905b8082111562000ae4576000815560010162000ace565b5090565b60006020828403121562000afb57600080fd5b81356001600160401b038116811462000b1357600080fd5b9392505050565b80356001600160a01b038116811462000b3257600080fd5b919050565b634e487b7160e01b600052604160045260246000fd5b6000806000806080858703121562000b6457600080fd5b62000b6f8562000b1a565b935060208501356001600160801b038116811462000b8c57600080fd5b92506040850135915060608501356001600160401b038082111562000bb057600080fd5b818701915087601f83011262000bc557600080fd5b81358181111562000bda5762000bda62000b37565b604051601f8201601f19908116603f0116810190838211818310171562000c055762000c0562000b37565b816040528281528a602084870101111562000c1f57600080fd5b82602086016020830137600060208483010152809550505050505092959194509250565b60006020828403121562000c5657600080fd5b5035919050565b60006020828403121562000c7057600080fd5b62000b138262000b1a565b634e487b7160e01b600052603260045260246000fd5b60006020828403121562000ca457600080fd5b8151801515811462000b1357600080fd5b634e487b7160e01b600052601160045260246000fd5b6001600160401b0382811682821603908082111562000cee5762000cee62000cb5565b5092915050565b6001600160401b0381811683821601908082111562000cee5762000cee62000cb5565b600181811c9082168062000d2d57607f821691505b60208210810362000d4e57634e487b7160e01b600052602260045260246000fd5b50919050565b601f82111562000da4576000816000526020600020601f850160051c8101602086101562000d7f5750805b601f850160051c820191505b8181101562000da05782815560010162000d8b565b5050505b505050565b81810362000db5575050565b62000dc1825462000d18565b6001600160401b0381111562000ddb5762000ddb62000b37565b62000df38162000dec845462000d18565b8462000d54565b6000601f82116001811462000e2a576000831562000e115750848201545b600019600385901b1c1916600184901b17845562000401565b600085815260209020601f19841690600086815260209020845b8381101562000e66578286015482556001958601959091019060200162000e44565b508583101562000e855781850154600019600388901b60f8161c191681555b5050505050600190811b01905550565b634e487b7160e01b600052603160045260246000fd5b81516001600160401b0381111562000ec75762000ec762000b37565b62000ed88162000dec845462000d18565b602080601f83116001811462000f10576000841562000ef75750858301515b600019600386901b1c1916600185901b17855562000da0565b600085815260208120601f198616915b8281101562000f415788860151825594840194600190910190840162000f20565b508582101562000e8557939096015160001960f8600387901b161c19169092555050600190811b0190555056fe6101006040523480156200001257600080fd5b506040516200134238038062001342833981016040819052620000359162000227565b33806200005d57604051631e4fbdf760e01b8152600060048201526024015b60405180910390fd5b620000688162000145565b50620000748462000195565b42826001600160801b0316116200008a57600080fd5b6001600160a01b03831660808190526001600160801b03831660a05260e08290526002805460ff191690556040805163313ce56760e01b815290516000929163313ce5679160048083019260209291908290030181865afa158015620000f4573d6000803e3d6000fd5b505050506040513d601f19601f820116820180604052508101906200011a919062000287565b905062000129600182620002c9565b6200013690600a620003e8565b60c05250620003f99350505050565b600080546001600160a01b038381166001600160a01b0319831681178455604051919092169283917f8be0079c531659141344cd1fd0a4f28419497f9722a3daafe3b4186f6b6457e09190a35050565b6200019f620001d9565b6001600160a01b038116620001cb57604051631e4fbdf760e01b81526000600482015260240162000054565b620001d68162000145565b50565b6000546001600160a01b03163314620002085760405163118cdaa760e01b815233600482015260240162000054565b565b80516001600160a01b03811681146200022257600080fd5b919050565b600080600080608085870312156200023e57600080fd5b62000249856200020a565b935062000259602086016200020a565b60408601519093506001600160801b03811681146200027757600080fd5b6060959095015193969295505050565b6000602082840312156200029a57600080fd5b815160ff81168114620002ac57600080fd5b9392505050565b634e487b7160e01b600052601160045260246000fd5b60ff8281168282160390811115620002e557620002e5620002b3565b92915050565b600181815b808511156200032c578160001904821115620003105762000310620002b3565b808516156200031e57918102915b93841c9390800290620002f0565b509250929050565b6000826200034557506001620002e5565b816200035457506000620002e5565b81600181146200036d5760028114620003785762000398565b6001915050620002e5565b60ff8411156200038c576200038c620002b3565b50506001821b620002e5565b5060208310610133831016604e8410600b8410161715620003bd575081810a620002e5565b620003c98383620002eb565b8060001904821115620003e057620003e0620002b3565b029392505050565b6000620002ac60ff84168362000334565b60805160a05160c05160e051610ed0620004726000396000818161012001526103f70152600081816108dc0152610bcd01526000818161029901526107f8015260008181610187015281816102fb0152818161056e015281816106bd0152818161093601528181610a930152610b690152610ed06000f3fe6080604052600436106100e85760003560e01c8063674254c61161008a5780638da5cb5b116100595780638da5cb5b1461024c578063b337a9261461026a578063e66aca631461027f578063f2fde38b146102c357600080fd5b8063674254c6146101df578063715018a614610202578063743e0c9b146102175780638d8f2adb1461023757600080fd5b8063145b88eb116100c6578063145b88eb146101595780631aa3a0081461017057806321df0da71461017857806343dc3ab2146101bf57600080fd5b806306661abd146100ed5780630946e8071461011157806312065fe014610144575b600080fd5b3480156100f957600080fd5b506001545b6040519081526020015b60405180910390f35b34801561011d57600080fd5b507f00000000000000000000000000000000000000000000000000000000000000006100fe565b34801561015057600080fd5b506100fe6102e3565b34801561016557600080fd5b5061016e610373565b005b61016e6103f5565b34801561018457600080fd5b507f00000000000000000000000000000000000000000000000000000000000000005b6040516001600160a01b039091168152602001610108565b3480156101cb57600080fd5b5061016e6101da366004610d23565b61049f565b3480156101eb57600080fd5b5060025460ff166040519015158152602001610108565b34801561020e57600080fd5b5061016e610538565b34801561022357600080fd5b5061016e610232366004610d98565b61054c565b34801561024357600080fd5b5061016e61064e565b34801561025857600080fd5b506000546001600160a01b03166101a7565b34801561027657600080fd5b5061016e6107a9565b34801561028b57600080fd5b506040516001600160801b037f0000000000000000000000000000000000000000000000000000000000000000168152602001610108565b3480156102cf57600080fd5b5061016e6102de366004610db1565b610c6b565b6040516370a0823160e01b81523060048201526000907f00000000000000000000000000000000000000000000000000000000000000006001600160a01b0316906370a0823190602401602060405180830381865afa15801561034a573d6000803e3d6000fd5b505050506040513d601f19601f8201168201806040525081019061036e9190610de1565b905090565b61037b610ca6565b47806103c45760405162461bcd60e51b81526020600482015260136024820152724e6f206665657320746f20776974686472617760681b60448201526064015b60405180910390fd5b604051339082156108fc029083906000818181858888f193505050501580156103f1573d6000803e3d6000fd5b5050565b7f000000000000000000000000000000000000000000000000000000000000000034101561045c5760405162461bcd60e51b8152602060048201526014602482015273125b9cdd59999a58da595b9d081c185e5b595b9d60621b60448201526064016103bb565b6001805480820182556000919091527fb10e2d527612073b26eecdfd717e6a320cf44b4afac2b0732d9fcbe2b7fa0cf60180546001600160a01b03191633179055565b6104a7610ca6565b8060005b8167ffffffffffffffff168167ffffffffffffffff16101561053257600184848367ffffffffffffffff168181106104e5576104e5610dfa565b90506020020160208101906104fa9190610db1565b815460018082018455600093845260209093200180546001600160a01b0319166001600160a01b0392909216919091179055016104ab565b50505050565b610540610ca6565b61054a6000610cd3565b565b6040516323b872dd60e01b8152336004820152306024820152604481018290527f00000000000000000000000000000000000000000000000000000000000000006001600160a01b0316906323b872dd906064016020604051808303816000875af11580156105bf573d6000803e3d6000fd5b505050506040513d601f19601f820116820180604052508101906105e39190610e10565b61064b5760405162461bcd60e51b815260206004820152603360248201527f5472616e73666572206661696c65642e204d616b6520737572652074686520656044820152723c3832b739b29034b99030b8383937bb32b21760691b60648201526084016103bb565b50565b610656610ca6565b60025460ff166106a85760405162461bcd60e51b815260206004820152601f60248201527f41697264726f70206d7573742062652073656e74206f75742066697273742e0060448201526064016103bb565b6040516370a0823160e01b81523060048201527f00000000000000000000000000000000000000000000000000000000000000006001600160a01b03169063a9059cbb90339083906370a0823190602401602060405180830381865afa158015610716573d6000803e3d6000fd5b505050506040513d601f19601f8201168201806040525081019061073a9190610de1565b6040516001600160e01b031960e085901b1681526001600160a01b03909216600483015260248201526044016020604051808303816000875af1158015610785573d6000803e3d6000fd5b505050506040513d601f19601f8201168201806040525081019061064b9190610e10565b60025460ff16156107e15760405162461bcd60e51b81526020600482015260026024820152614e6f60f01b60448201526064016103bb565b6002805460ff191660011790556001600160801b037f00000000000000000000000000000000000000000000000000000000000000001642116108725760405162461bcd60e51b8152602060048201526024808201527f497420697320746f6f206561726c7920746f2073656e642061697264726f702060448201526337baba1760e11b60648201526084016103bb565b600061087c6102e3565b116108d85760405162461bcd60e51b815260206004820152602660248201527f54686520636f6e74726163742062616c616e6365206d757374206265206e6f6e604482015265103d32b9379760d11b60648201526084016103bb565b60007f00000000000000000000000000000000000000000000000000000000000000006109036102e3565b61090d9190610e48565b600154909150600090815b8167ffffffffffffffff168167ffffffffffffffff161015610a08577f00000000000000000000000000000000000000000000000000000000000000006001600160a01b03166370a0823160018367ffffffffffffffff168154811061098057610980610dfa565b60009182526020909120015460405160e083901b6001600160e01b03191681526001600160a01b039091166004820152602401602060405180830381865afa1580156109d0573d6000803e3d6000fd5b505050506040513d601f19601f820116820180604052508101906109f49190610de1565b6109fe9084610e6a565b9250600101610918565b5060008211610a6e5760405162461bcd60e51b815260206004820152602c60248201527f4e6f2061697264726f7020726563697069656e74206164647265737320686f6c60448201526b3239903a3432903a37b5b2b760a11b60648201526084016103bb565b60005b8167ffffffffffffffff168167ffffffffffffffff16101561053257600083857f00000000000000000000000000000000000000000000000000000000000000006001600160a01b03166370a0823160018667ffffffffffffffff1681548110610add57610add610dfa565b60009182526020909120015460405160e083901b6001600160e01b03191681526001600160a01b039091166004820152602401602060405180830381865afa158015610b2d573d6000803e3d6000fd5b505050506040513d601f19601f82011682018060405250810190610b519190610de1565b610b5b9190610e83565b610b659190610e48565b90507f00000000000000000000000000000000000000000000000000000000000000006001600160a01b031663a9059cbb60018467ffffffffffffffff1681548110610bb357610bb3610dfa565b6000918252602090912001546001600160a01b0316610bf27f000000000000000000000000000000000000000000000000000000000000000085610e83565b6040516001600160e01b031960e085901b1681526001600160a01b03909216600483015260248201526044016020604051808303816000875af1158015610c3d573d6000803e3d6000fd5b505050506040513d601f19601f82011682018060405250810190610c619190610e10565b5050600101610a71565b610c73610ca6565b6001600160a01b038116610c9d57604051631e4fbdf760e01b8152600060048201526024016103bb565b61064b81610cd3565b6000546001600160a01b0316331461054a5760405163118cdaa760e01b81523360048201526024016103bb565b600080546001600160a01b038381166001600160a01b0319831681178455604051919092169283917f8be0079c531659141344cd1fd0a4f28419497f9722a3daafe3b4186f6b6457e09190a35050565b60008060208385031215610d3657600080fd5b823567ffffffffffffffff80821115610d4e57600080fd5b818501915085601f830112610d6257600080fd5b813581811115610d7157600080fd5b8660208260051b8501011115610d8657600080fd5b60209290920196919550909350505050565b600060208284031215610daa57600080fd5b5035919050565b600060208284031215610dc357600080fd5b81356001600160a01b0381168114610dda57600080fd5b9392505050565b600060208284031215610df357600080fd5b5051919050565b634e487b7160e01b600052603260045260246000fd5b600060208284031215610e2257600080fd5b81518015158114610dda57600080fd5b634e487b7160e01b600052601160045260246000fd5b600082610e6557634e487b7160e01b600052601260045260246000fd5b500490565b80820180821115610e7d57610e7d610e32565b92915050565b8082028115828204841417610e7d57610e7d610e3256fea264697066735822122030c8f32236742575ffa6d57d1ebfde490de93b372627140bb72ee79e17c6dce664736f6c63430008170033a2646970667358221220dbf67e2c325cab3f8213b380edcfcbf672f4c90610585aa406e00e251afc235164736f6c63430008170033",
        "linkReferences": {}
    },
    "methodIdentifiers": {
        "createNewAirdrop(address,uint128,uint256,string)": "5a2c9273",
        "getContract(uint64)": "05a9b786",
        "getFee()": "ced72f87",
        "getFeeToken()": "ca709a25",
        "getNumberOfAirdrops()": "e229fdae",
        "getTeasury()": "7cb5a8b8",
        "owner()": "8da5cb5b",
        "removeAirdrop()": "cfca8024",
        "renounceOwnership()": "715018a6",
        "transferOwnership(address)": "f2fde38b",
        "updateFee(uint256)": "9012c4a8"
    },
    "id": 32
}